:100000000C9464000C948C000C948C000C94390AB1
:100010000C94390A0C94390A0C948C000C94150930
:100020000C948C000C948C000C948C000C94B10AF1
:100030000C948C000C948C000C948C000C948C0010
:100040000C94EF090C948C000C94BD090C94970946
:100050000C948C000C948C000C948C000C948C00F0
:100060000C948C000C948C000000000024002700ED
:100070002A0000000008000201000003040700003D
:1000800000000000000002000000002300260029FC
:100090000000000000250028002B000404040404D4
:1000A0000404040202020202020303030303030125
:1000B00002040810204080010204081020010204FC
:1000C000081020006D0B2F1411241FBECFEFD8E0B5
:1000D000DEBFCDBF12E0A0E0B1E0EEE5F3E302C089
:1000E00005900D92A030B107D9F723E0A0E0B2E06F
:1000F00001C01D92AA3DB207E1F710E0C3E6D0E0CF
:1001000004C02197FE010E94A317C236D107C9F788
:100110000E94E50C0C94A2190C9400000F931F93FD
:10012000CF93DF93C0917F03E0E8F3E0CD3211F08D
:10013000EFE7F3E08F0120E030E0A901D801DD9185
:100140008D0180ED8D0F8A3090F4AAE0B0E00E941E
:10015000ED152D2FDD0F330B440B550B260F371FDD
:10016000481F591F2053310941095109E7CFA4E61F
:10017000B0E00E94ED15AB01BC01DF01819190ED73
:10018000980F9A30D0F38E3259F511968C911197C1
:1001900090ED980F9A3020F5082E000C990BC0971F
:1001A0002AE0289F8001299F100D1124012E000CA8
:1001B000220B330B400F511F621F731F12968C913D
:1001C00090ED980F9A3060F4082E000C990BC097B0
:1001D000092E000CAA0BBB0B480F591F6A1F7B1F6F
:1001E000CD3239F470956095509541955F4F6F4FC2
:1001F0007F4FCB01BA01DF91CF911F910F910895ED
:100200004F925F926F927F928F929F92AF92BF9226
:10021000CF92DF92EF92FF921F93CF93DF93CFE7BE
:10022000D3E0FE01C12CD12C7601119180ED810F1C
:100230008A30A8F4AAE0B0E0A70196010E94ED156B
:10024000C12E110FDD08EE08FF08C60ED71EE81EEE
:10025000F91E80E3C81AD108E108F108E6CFC7010A
:10026000B60124E630E040E050E00E9437169B01E2
:10027000AC0160EA76E881E090E00E9487174B01CC
:100280005C019E01899190ED980F9A30D0F38E32E7
:1002900021F5E901219680E1482E87E2582E612C54
:1002A000712CA99180ED8A0F8A30B8F40A2E000CC7
:1002B000BB0BD097A30192010E94F815860E971EE2
:1002C000A81EB91EC301B2012AE030E040E050E0B0
:1002D0000E94371629013A01E4CFC701B60124E68E
:1002E00030E040E050E00E94371660E472E48FE0B6
:1002F00090E00E9487176B017C01C501B4016D5F1E
:100300007F4F8F4F9F4F26E030E040E050E00E944B
:100310003716C701B601620F731F841F951FDF9147
:10032000CF911F91FF90EF90DF90CF90BF90AF9053
:100330009F908F907F906F905F904F900895AF92B5
:10034000BF92CF92DF92EF92FF920F931F93CF93C2
:10035000DF936C017B018B01040F151FEB015E0124
:10036000AE18BF08C017D10759F06991D601ED91B9
:10037000FC910190F081E02DC6010995892B79F758
:10038000C501DF91CF911F910F91FF90EF90DF900A
:10039000CF90BF90AF900895FC01538D448D252FD1
:1003A00030E0842F90E0821B930B541710F0CF960F
:1003B000089501970895FC01918D828D981761F041
:1003C000A28DAE0FBF2FB11D5D968C91928D9F5F58
:1003D0009F73928F90E008958FEF9FEF0895FC0137
:1003E000918D828D981731F0828DE80FF11D858DEA
:1003F00090E008958FEF9FEF0895FC01918D228D7D
:10040000892F90E0805C9F4F821B91098F73992701
:10041000089581E692E00E94FD0121E0892B09F414
:1004200020E0822F089580E090E0892B29F00E943F
:10043000090281110C9400000895FC01A48DA80FFD
:10044000B92FB11DA35ABF4F2C91848D90E0019616
:100450008F739927848FA689B7892C93A089B18936
:100460008C91837080648C93938D848D981306C0D7
:100470000288F389E02D80818F7D80830895EF923B
:10048000FF920F931F93CF93DF93EC0181E0888F4E
:100490009B8D8C8D98131AC0E889F989808185FF1E
:1004A00015C09FB7F894EE89FF896083E889F989C0
:1004B00080818370806480839FBF81E090E0DF91C2
:1004C000CF911F910F91FF90EF900895F62E0B8D15
:1004D00010E00F5F1F4F0F731127E02E8C8D8E11D0
:1004E0000CC00FB607FCFACFE889F989808185FF37
:1004F000F5CFCE010E941D02F1CFEB8DEC0FFD2F49
:10050000F11DE35AFF4FF0829FB7F8940B8FEA89F1
:10051000FB8980818062CFCFCF93DF93EC01888D00
:100520008823B9F0AA89BB89E889F9898C9185FD6E
:1005300003C0808186FD0DC00FB607FCF7CF8C91FC
:1005400085FFF2CF808185FFEDCFCE010E941D0295
:10055000E9CFDF91CF91089590E0FC01EE58FF4F75
:100560002491FC01E155FF4F3491FC01E556FF4F0A
:10057000E491EE23C9F0222339F0233001F1A8F4ED
:10058000213019F1223029F1F0E0EE0FFF1FEF5674
:10059000FF4FA591B4918FB7F894EC91611126C0EB
:1005A00030953E233C938FBF08952730A9F0283023
:1005B000C9F0243049F7809180008F7D03C080917D
:1005C00080008F7780938000DFCF84B58F7784BDE4
:1005D000DBCF84B58F7DFBCF8091B0008F77809388
:1005E000B000D2CF8091B0008F7DF9CF3E2BDACF13
:1005F000CF93DF9390E0FC01E155FF4F24918556A6
:100600009F4FFC0184918823D1F090E0880F991FBF
:10061000FC01E859FF4FA591B491FC01EF56FF4F43
:10062000C591D49161110EC09FB7F8948C91E22FBF
:10063000E0958E238C932881E223E8839FBFDF918E
:10064000CF9108958FB7F894EC91E22BEC938FBF84
:10065000F6CF8F929F92AF92BF92CF92DF92EF929E
:10066000FF920F931F93CF938C016A017B018091BE
:100670000001863079F08F3F09F44FC0CF911F9170
:100680000F91FF90EF90DF90CF90BF90AF909F9031
:100690008F900895E6E8F0E0C491C7FDEFCF61E0E8
:1006A00086E00E94F802C1114EC0980150E040E07F
:1006B00068E478EE81E090E00E94CE1549015A018D
:1006C00081E0881A9108A108B10885B5887F836008
:1006D00085BDD801AA0FBB1FA70196010E94ED1589
:1006E00028EE33E040E050E00E943716C13009F4B4
:1006F000B4C0C23009F4C3C0C111C0CF87BC2093BD
:100700005D0230935E0240935F02509360028091DD
:100710006E00826080936E00B1CF86E0809300010E
:10072000E6E8F0E0C491CF3F09F4A8CFC13009F466
:100730003DC018F1C23009F457C0C7FD9FCF61E03A
:1007400086E00E94F802980150E040E0C23009F0D3
:100750006DC060E970ED83E090E00E94CE15490124
:100760005A0181E0881A9108A108B1088091B1006E
:10077000887F83608093B100ACCF14BC15BC84B576
:10078000826084BD85B5816085BDE1EAF0E0E491D9
:10079000F0E0EE0FFF1FEF56FF4F85919491E5EBD0
:1007A000F0E0E491E0935402C0E079CF1092800031
:1007B00010928100809181008860809381008091F7
:1007C0008100816080938100E1EAF0E0E491F0E053
:1007D000EE0FFF1FEF56FF4F85919491E5EBF0E090
:1007E000E491E09353025BCF1092B0001092B100FD
:1007F0008091B00082608093B0008091B1008160F0
:100800008093B100E1EAF0E0E491F0E0EE0FFF1F29
:10081000EF56FF4F8591949190935202809351022D
:10082000E5EBF0E0E491E093500239CF60E072E153
:100830008AE790E00E94CE1549015A0181E0881AAA
:100840009108A108B108C13009F043CF809181001F
:10085000887F8160809381003CCF90928900809254
:1008600088002093590230935A0240935B025093C0
:100870005C0280916F00826080936F00FFCE809257
:10088000B300209355023093560240935702509381
:10089000580280917000826080937000EFCE8E309D
:1008A00008F08E508770806480937C0080917A007D
:1008B000806480937A0080917A0086FDFCCF8091DD
:1008C00078009091790008953FB7F894809146029E
:1008D00090914702A0914802B091490226B5A89B89
:1008E00005C02F3F19F00196A11DB11D3FBFBA2FC2
:1008F000A92F982F8827BC01CD01620F711D811D82
:10090000911D42E0660F771F881F991F4A95D1F706
:1009100008958F929F92AF92BF92CF92DF92EF9203
:10092000FF924B015C010E9464046B017C010E94F8
:1009300064046C197D098E099F09683E7340810526
:100940009105A8F321E0821A9108A108B10888EE68
:10095000C80E83E0D81EE11CF11C81149104A1048F
:10096000B10429F7FF90EF90DF90CF90BF90AF9048
:100970009F908F9008952FB7F894609142027091E4
:10098000430280914402909145022FBF0895209127
:100990004C0230914D022817390771F490914A02A8
:1009A00080914B02981741F0E0914A02F0E0EF5F2E
:1009B000FD4F808190E008958FEF9FEF0895089597
:1009C000EF92FF920F931F93CF93DF93DC015C961E
:1009D000ED90FC905D97E114F10479F481E090E0F2
:1009E00013969C938E93129790E080E0DF91CF91C5
:1009F0001F910F91FF90EF9008955196ED91FC910A
:100A0000529750968C915097982F90950FB75E966D
:100A10002C915E97122F127021FD6095F894208121
:100A2000112319F1282B2083E7012197F1F728E002
:100A3000462F50E0308160FF1AC0382B3083E70129
:100A40002197F1F7BA0175956795215089F7112320
:100A500081F08081892380830FBF5C968D919C916A
:100A60000197F1F781E090E0C1CF2923DCCF392352
:100A7000E5CF9081892BEFCF20914C0230914D0230
:100A80002817390761F480914B0220914A0290E0C7
:100A9000805C9F4F821B91098F739927089590E086
:100AA00080E0089520914C0230914D0228173907BB
:100AB000B9F490914A0280914B02981789F0E09125
:100AC0004A02F0E0EF5FFD4F808120914A0230E062
:100AD0002F5F3F4F2F73332720934A0290E00895F2
:100AE0008FEF9FEF0895089590E080E00895CF93F1
:100AF000DF93EC0160E08E810E94AC0261E08E81A8
:100B00000E94AC0260E08E810E94AC028BE891E012
:100B10000197F1F7DF91CF910895CF92DF92EF9295
:100B2000FF920F931F93CF93DF936C017C0187E0BB
:100B3000E80EF11CD0E0C0E0062F10E0B8010C2E4A
:100B400002C0759567950A94E2F76170F70181918B
:100B50007F010E94AC022196C430D10579F7C6010D
:100B6000DF91CF911F910F91FF90EF90DF90CF9089
:100B70000C947705CF92DF92EF92FF920F931F9321
:100B8000CF93DF93EC01F62E642F8C810E94AC0290
:100B90008D818F3F19F060E00E94AC020F2D10E0B4
:100BA0008F8584FF25C06E0187E0C80ED11CF12C13
:100BB000E12CB8010E2C02C0759567950A94E2F7F6
:100BC0006170F60181916F010E94AC02FFEFEF1A94
:100BD000FF0A88E0E816F10461F7CE01DF91CF91BA
:100BE0001F910F91FF90EF90DF90CF900C947705BD
:100BF000B80184E0759567958A95E1F7CE010E946A
:100C00008D056F2DCE01DF91CF911F910F91FF9038
:100C1000EF90DF90CF900C948D0540E0682F8BEB28
:100C200093E00C94BA0581E00E940D068BE39FE1EE
:100C30000197F1F70895CF93DF93623029F49091F3
:100C4000CA0398609093CA036093CE031092CF03B7
:100C500090E49093D0038093D103805C8093D2037F
:100C600061E08091BF030E94F8028091C0038F3F32
:100C700019F061E00E94F80261E08091C1030E94D6
:100C8000F802CBEBD3E09E012B5B33408091CA038B
:100C900084FD0BC084E090E021962817390744F4C6
:100CA00061E08E810E94F802EECF88E090E0F4CF00
:100CB0008BE39DE00197F1F760E08091BF030E9414
:100CC000AC0260E08091C1030E94AC028091C0033D
:100CD0008F3F19F060E00E94AC028091CA0384FD4E
:100CE00034C063E08BEB93E00E948D05CBE4D6E447
:100CF000CE010197F1F763E08BEB93E00E948D0545
:100D00002197F1F763E08BEB93E00E948D0583E57B
:100D100092E00197F1F762E08BEB93E00E948D0582
:100D20008091CA0380620E940D0684E08093CB0309
:100D30008CE00E940D060E94130682E08093CC0393
:100D400086E0DF91CF910C940D0680620E940D0623
:100D50008BE496E40197F1F78091CA0380620E94C8
:100D60000D0683E592E00197F1F78091CA03806256
:100D70000E940D06D5CF9091CE03891710F08FEF0A
:100D8000890FE82FF0E0E554FC4F848980680C94CB
:100D90000D0641E00E94BA0581E090E00895FB0154
:100DA00001900020E9F73197AF01461B570BDC019A
:100DB000ED91FC910280F381E02D09948F929F9236
:100DC000AF92BF920F931F93CF93DF93CDB7DEB750
:100DD000A1970FB6F894DEBF0FBECDBF19A2423067
:100DE00008F44AE08E010F5D1F4F842E912CB12C28
:100DF000A12CA50194010E943716E62FB901CA0162
:100E0000EA3004F5E05DD801EE938D01232B242B0D
:100E1000252B79F790E080E0109729F0BD0181E65D
:100E200092E00E94CF06A1960FB6F894DEBF0FBEE7
:100E3000CDBFDF91CF911F910F91BF90AF909F9049
:100E40008F900895E95CDFCF4F925F926F927F920F
:100E50008F929F92AF92BF92CF92DF92EF92FF92CA
:100E60000F931F93CF936B017C01742EAC019B01F8
:100E70000E94821767E371E0811126C04601570185
:100E8000E894B7F82FEF3FEF4FE75FE7C501B401F4
:100E90000E94821781110CC02FEF3FEF4FE75FE7F1
:100EA000C501B4010E94AA146BE371E0181664F046
:100EB0002FEF3FEF4FE75FE4C701B6010E947D17B8
:100EC0001816ACF46FE371E081E692E0CF911F91C8
:100ED0000F91FF90EF90DF90CF90BF90AF909F90D9
:100EE0008F907F906F905F904F900C94CF062FEF74
:100EF0003FEF4FE75FECC701B6010E94AA1487FDE0
:100F0000E1CF20E030E0A901C701B6010E94AA1498
:100F100010E000E087FF0AC06DE281E692E00E94E7
:100F20003F028C01F7FAF094F7F8F094C0E060E02B
:100F300070E080E09FE37C1641F020E030E040E28A
:100F400051E40E94D516CF5FF6CFA70196010E940B
:100F500069162B013C010E944E174B015C014AE0CF
:100F60000E94DE067C01E00EF11ECC23C1F1C5011A
:100F7000B4010E94AF149B01AC01C301B2010E94F5
:100F800068164B015C016EE281E692E00E943F022E
:100F9000E80EF91EC15018F120E030E040E251E4C3
:100FA000C501B4010E9410152B013C010E944E178F
:100FB0004B01B12CA12C4AE0C501B4010E94DE0610
:100FC000E80EF91EC501B4010E94AF149B01AC01EB
:100FD000C301B2010E9468164B015C01DBCFC7015F
:100FE000CF911F910F91FF90EF90DF90CF90BF9026
:100FF000AF909F908F907F906F905F904F900895EB
:10100000CF93DF93FC01448155816081718181E63A
:1010100092E00E949F01EC0163E471E081E692E0BE
:101020000E94CF068C0F9D1FDF91CF9108950F93E3
:101030001F93CF93DF93EC0188819981009759F03A
:101040002A813B812617370730F081E0DF91CF916D
:101050001F910F9108958B016F5F7F4F0E94D518EC
:10106000009759F0998388831B830A832C813D81E3
:10107000232B59F7FC011082E8CF80E0E7CFCF9314
:10108000DF93EC0188819981009711F00E944C1840
:10109000198218821D821C821B821A82DF91CF91D5
:1010A0000895CF92DF92EF92FF920F931F93CF9309
:1010B000DF93CDB7DEB728970FB6F894DEBF0FBE2B
:1010C000CDBF7C01CB014AE09E012F5F3F4F6901FC
:1010D000B9010E946D14F60101900020E9F73197E3
:1010E000EC19FD09D9F0D70114960D911C910E0F42
:1010F0001F1FB801C7010E9417088823F9F0F701E4
:101100002081318184819581B601820F931F0E94D5
:101110009B19D70115961C930E931497C701289617
:101120000FB6F894DEBF0FBECDBFDF91CF911F91F8
:101130000F91FF90EF90DF90CF900895C7010E942C
:101140003F08ECCFEF92FF920F931F93CF93DF9363
:10115000EC01198218821B821A821D821C8286175A
:10116000970719F1FB010081118101151105E9F0C3
:10117000E480F580B7010E941708811109C0CE01F3
:10118000DF91CF911F910F91FF90EF900C943F084A
:10119000FD82EC82B80188819981DF91CF911F9106
:1011A0000F91FF90EF900C949B19DF91CF911F91BD
:1011B0000F91FF90EF900895EF92FF920F931F937E
:1011C000CF93DF93EC017B01198218821B821A8274
:1011D0001D821C82FB0101900020E9F731978F01ED
:1011E000061B170BB8010E941708811109C0CE0118
:1011F000DF91CF911F910F91FF90EF900C943F08DA
:101200001D830C83B70188819981DF91CF911F9154
:101210000F91FF90EF900C949B19FC0180819181BC
:10122000009711F00C944C1808951F920F920FB66E
:101230000F9211242F933F934F935F936F937F935C
:101240008F939F93AF93BF93EF93FF93809155023A
:1012500090915602A0915702B0915802892B8A2B87
:101260008B2BD1F190915002E0915102F0915202FA
:101270008081892780838091550290915602A091A8
:101280005702B0915802181619061A061B069CF44C
:101290008091550290915602A0915702B091580248
:1012A0000197A109B1098093550290935602A0932A
:1012B0005702B0935802FF91EF91BF91AF919F9168
:1012C0008F917F916F915F914F913F912F910F90EF
:1012D0000FBE0F901F90189580910001E6E8F0E096
:1012E000E4919FEF90930001E13051F030F0E23053
:1012F00069F060E00E94AC02DECF10926E00F9CF80
:1013000090916F009D7F90936F00F3CF909170004C
:101310009D7F9093700091E09093B0009091B10008
:10132000987F94609093B1001092B300E2CF1F9227
:101330000F920FB60F9211242F933F934F935F9309
:101340006F937F938F939F93AF93BF93EF93FF938D
:1013500081E692E00E941D02FF91EF91BF91AF9153
:101360009F918F917F916F915F914F913F912F91BD
:101370000F900FBE0F901F9018951F920F920FB6EF
:101380000F9211242F938F939F93EF93FF93E091EC
:101390007102F09172028081E0917702F0917802FF
:1013A00082FD1BC0908180917A028F5F8F732091A4
:1013B0007B02821741F0E0917A02F0E0EF59FD4F95
:1013C000958F80937A02FF91EF919F918F912F914A
:1013D0000F900FBE0F901F9018958081F4CF1F9231
:1013E0000F920FB60F9211242F933F938F939F93D9
:1013F000AF93BF938091420290914302A091440227
:10140000B09145023091410223E0230F2D3758F56A
:101410000196A11DB11D2093410280934202909339
:101420004302A0934402B0934502809146029091FA
:101430004702A0914802B09149020196A11DB11D39
:101440008093460290934702A0934802B0934902CA
:10145000BF91AF919F918F913F912F910F900FBEB0
:101460000F901F90189526E8230F0296A11DB11D1D
:10147000D2CF1F920F920FB60F9211242F933F934A
:101480004F935F936F937F938F939F93AF93BF938C
:10149000EF93FF93E0914C02F0914D02309749F0A9
:1014A000A685B7858585968D91FF14C09C9189236B
:1014B000A1F4FF91EF91BF91AF919F918F917F9197
:1014C0006F915F914F913F912F910F900FBE0F90B1
:1014D0001F9018959C91892361F7A389B4899C91E9
:1014E0008589809589238C93868997890197F1F75F
:1014F000608D718DA685B785558538E020E0CB01DC
:101500000197F1F7822F90E095958795282F4C91C0
:10151000452309F02068315091F7868D81FD209593
:1015200080914B0290E001968F73992730914A0287
:10153000381799F0A0914B02B0E0AF5FBD4F2C93EC
:1015400080934B02828D938D0197F1F7A389B48923
:101550008C919589892B8C93ACCF868D8160868FF9
:10156000F1CF1F920F920FB60F9211242F933F933A
:101570004F935F936F937F938F939F93AF93BF939B
:10158000CF93DF93EF93FF9380910002C0912203EA
:10159000D0E087FF24C010928500109284008091D3
:1015A00000028F5F8093000280910002082E000CE1
:1015B000990B8C179D0724F4809100028C30C4F1A4
:1015C0008091840090918500049680349C4908F4B1
:1015D0007AC08091840090918500049676C08091B5
:1015E0000002082E000C990B8C179D07C4F6E091A1
:1015F00000028E2FEE0F990BFC01EE0FFF1FE80F7C
:10160000F91FE250FD4F808186FFC9CFE0910002B3
:101610008E2FEE0F990BFC01EE0FFF1FE80FF91F45
:10162000E250FD4F808160E08F730E94AC02B7CF23
:101630002091840030918500E09100028E2FEE0F02
:10164000990BFC01EE0FFF1FE80FF91FE250FD4F51
:1016500081819281820F931F9093890080938800EB
:10166000E09100028E2FEE0F990BFC01EE0FFF1F91
:10167000E80FF91FE250FD4F808186FF11C0E09115
:1016800000028E2FEE0F990BFC01EE0FFF1FE80FEB
:10169000F91FE250FD4F808161E08F730E94AC0220
:1016A000FF91EF91DF91CF91BF91AF919F918F917A
:1016B0007F916F915F914F913F912F910F900FBE4E
:1016C0000F901F90189580E49CE990938900809377
:1016D00088008FEF80930002E3CF10926402109293
:1016E000630288EE93E0A0E0B0E0809365029093FF
:1016F0006602A0936702B09368028BE091E090933A
:1017000062028093610285EC90E090936E02809378
:101710006D0284EC90E09093700280936F0280ECF5
:1017200090E0909372028093710281EC90E090932C
:1017300074028093730282EC90E09093760280931F
:10174000750286EC90E09093780280937702109275
:101750007A0210927B0210927C0210927D0280919C
:1017600022038C3008F02DC191E0980F9093220352
:101770008093D30390E0FC01EE0FFF1FE80FF91FE9
:10178000E250FD4F88EB9BE0928381831092BE0371
:101790001092BD038FE291E09093BC038093BB0352
:1017A0008CE08093BF038FEF8093C0038BE0809326
:1017B000C10385E08093C20384E08093C30383E088
:1017C0008093C40382E08093C5031092C6031092F5
:1017D000C7031092C8031092C9031092CA0361E0B4
:1017E00080E10E941B0610929F0310929E0388EED8
:1017F00093E0A0E0B0E08093A0039093A103A093B6
:10180000A203B093A3038DE191E090939D03809395
:101810009C031092B3031092B2031092B50310927E
:10182000B4031092B7031092B6031092B90310924A
:10183000B8036091BA036E7F6D7F6093BA036695BB
:10184000617081E068278AE00E94AC0261E08AE072
:101850000E94F802E9EBF0E0E491E093AC03E5EAE2
:10186000F0E0E491F0E0EE0FFF1FEF56FF4F85919F
:1018700094919093AE038093AD0360E089E00E9461
:10188000F8028091BA0381FD04C061E089E00E9402
:10189000AC0289E08093A803E8EBF0E0E491E093E8
:1018A000A903E4EAF0E0E491F0E0EE0FFF1FE9574E
:1018B000FF4F859194919093AB038093AA034FEFD0
:1018C0005FEFBA014093290350932A0360932B03DF
:1018D00070932C0310923103109232031092330351
:1018E000109234038FEF99ECAAE9BBE3809339039C
:1018F00090933A03A0933B03B0933C03809341033E
:1019000090934203A0934303B0934403809349030D
:1019100090934A03A0934B03B0934C0380935103DD
:1019200090935203A0935303B093540380935903AD
:1019300090935A03A0935B03B0935C0340936103BD
:101940005093620360936303709364038FEF90E09E
:1019500090936A038093690340936D0350936E03E1
:1019600060936F03709370034093750350937603F5
:10197000609377037093780310927D0310927E0337
:1019800082E080938E0310928F0310929003109246
:101990009103109292031092930310929403109269
:1019A0009503109297031092960310929903109248
:1019B000980310927F0365E471E083E293E00C9456
:1019C000DC088FEF8093D303E1CECF93DF93CDB7C5
:1019D000DEB72C970FB6F894DEBF0FBECDBF78945C
:1019E00084B5826084BD84B5816084BD85B5826024
:1019F00085BD85B5816085BD80916E0081608093D5
:101A00006E0010928100809181008260809381003D
:101A1000809181008160809381008091800081604D
:101A2000809380008091B10084608093B1008091A8
:101A3000B00081608093B00080917A0084608093D0
:101A40007A0080917A00826080937A0080917A0097
:101A5000816080937A0080917A00806880937A0018
:101A60001092C10061E088E00E94F80261E081E02C
:101A70000E94F80261E087E00E94F8028091D3039F
:101A80008C3008F051C061E08DE00E94F802809136
:101A9000D303282F30E0F901EE0FFF1FE20FF31FF1
:101AA000E250FD4F9081907C9D6090831092D40312
:101AB0001092D5032CE0622F0E949717829FB001ED
:101AC000112430E020E0AB01420F531FFA01EE0F6A
:101AD000FF1FE40FF51FE250FD4F908196FD16C0E9
:101AE0002F5F3F4F2C30310571F781110FC01092DD
:101AF000800082E080938100109285001092840023
:101B0000B19A80916F00826080936F00E091D3035F
:101B10008E2F90E0FC01EE0FFF1FE80FF91FE2503F
:101B2000FD4F80818064808361E086E00E94F8023E
:101B300062E08EE00E941B0664E670E080E090E0C8
:101B40000E94890460E08EE00E94F80260E08FE06D
:101B50000E94F80261E086E00E94F80261E087E0FE
:101B60000E94F80261E08AE00E94F80260E087E0EB
:101B70000E94AC0260E08AE00E94AC021092B703BF
:101B80001092B6031092B5031092B4031092B303EF
:101B90001092B2038DE991E09093B9038093B8035A
:101BA0009091A803963108F047C02DEB30E03093B8
:101BB000B3032093B2032BE931E03093B5032093B4
:101BC000B4032CE231E03093B7032093B6032091A5
:101BD000680084E0983048F031E09E3008F430E04E
:101BE00081E001C0880F3A95EAF7822B8093680064
:101BF0002DE630E0983050F02BE630E09E3030F0AB
:101C00002CE630E0963110F030E020E03093B00365
:101C10002093AF03292F30E0983008F0C8C181E04D
:101C200001C0880F9A95EAF78093B1038091B803B9
:101C30009091B9030197F1F78091B6039091B703A2
:101C4000892B49F1E0914C02F0914D0223E0EC39EF
:101C5000F20709F1309739F0A389B4899C918589FD
:101C6000809589238C938091BA038E7F8093BA03E9
:101C700010924B0210924A028CE993E090934D022D
:101C800080934C02E091AF03F091B003808190917A
:101C9000B103892B8083E0917102F091720282E09E
:101CA0008083E0916D02F0916E021082E0916F02EC
:101CB000F09170028FEC808310927902E0917502AE
:101CC000F091760286E08083E0917302F0917402D5
:101CD000808180618083E0917302F0917402808141
:101CE00088608083E0917302F09174028081806843
:101CF0008083E0917302F091740280818F7D8083F4
:101D000012E0312E222423948EE00E944F04BC0165
:101D1000990F880B990B0E94B11420E030E040EA43
:101D200050E40E94101520E030E048EC52E40E949C
:101D3000101520E030E040E85AE30E9410150E94A0
:101D400047172B014B018FE00E944F04BC01990FF4
:101D5000880B990B0E94B11420E030E040EA50E477
:101D60000E94101520E030E048EC52E40E9410156B
:101D700020E030E040E85AE30E9410150E94471727
:101D800070934F0260934E0262E370E080E090E057
:101D90000E9489040E94BB046B017C010E94BB0469
:101DA0006C197D098E099F09683E73408105910574
:101DB00008F0E2C281E692E00E94FD01892B71F3F6
:101DC00081E692E00E94DB01182F809192039091AE
:101DD0009303A0919403B09195030196A11DB11DA9
:101DE0008093920390939303A0939403B0939503ED
:101DF000143209F4A0C2E091900315320CF0E4C053
:101E00001A3019F01D3009F0A3C2EF3008F0C1C03C
:101E100090918F03F0E0E158FC4F108280917E0397
:101E2000882309F451C120917F03822F022E000CD8
:101E3000990B3FEB320F363008F0D2C0C79782952E
:101E4000807F90918003292F092E000C330B4FEBDC
:101E5000490F463008F0CCC027533109820F9091CA
:101E60007D03891327C180919103882309F491C0D0
:101E70008091960390919703019690939703809396
:101E800096038091710390917203A0917303B091B6
:101E9000740380936D0390936E03A0936F03B093CC
:101EA00070038091790390917A03A0917B03B091A4
:101EB0007C038093750390937603A0937703B0938C
:101EC000780380918E03882309F49BC0813009F048
:101ED00060C080912D0390912E03A0912F03B091AB
:101EE00030038093290390932A03A0932B03B0938C
:101EF0002C038091350390913603A0913703B09164
:101F000038038093310390933203A0933303B0934B
:101F1000340380913D0390913E03A0913F03B09123
:101F200040038093390390933A03A0933B03B0930B
:101F30003C038091450390914603A0914703B091E3
:101F400048038093410390934203A0934303B093CB
:101F500044038091550390915603A0915703B0918B
:101F600058038093510390935203A0935303B0936B
:101F7000540380915D0390915E03A0915F03B09143
:101F800060038093590390935A03A0935B03B0932B
:101F90005C0380918F038F5F80938F031092900377
:101FA00081E01A3209F080E080937E0303CF9E30F7
:101FB00040F42850310981E001C0880F2A95EAF7E2
:101FC00033CE2E503109F7CF1A3209F41ECF1C320E
:101FD00009F0BEC180917D03812780937D0315CFD9
:101FE0002156263018F48755910929CFC09727CF5D
:101FF0009156963018F42755310930CF20533109C6
:102000002DCF80914D0390914E03A0914F03B0913D
:1020100050038093490390934A03A0934B03B093DA
:102020004C0380912D0390912E03A0912F03B0912A
:1020300030038093290390932A03A0932B03B0933A
:102040002C0380913D0390913E03A0913F03B091FA
:1020500040038093390390933A03A0933B03B093DA
:102060003C038091450390914603A0914703B091B2
:1020700048038093410390934203A0934303B0939A
:10208000440380916B0390916C0390936A03809357
:1020900069038091650390916603A0916703B091F5
:1020A00068038093610390936203A0936303B093EA
:1020B00064036FCF80919803909199030196909358
:1020C00099038093980365CF91111CC0AFE7B3E0EB
:1020D00046E451E09D01F90181919F01882309F4B3
:1020E000B8C3FA019191AF018917A9F3ECE4F1E0CB
:1020F0008D91882309F4B0C391918917C9F3309267
:102100008E0347CFE0918E03E23009F442CF8091F5
:102110007F03882309F43DCF20E2E29FF0011124E0
:10212000E92B3197E932F10508F033CFE656FF4E3F
:102130000C94A317E410FF1014112F113A1174110D
:102140007B1185119011C90FC90FC90FC90FC90F94
:10215000C90FC90FC90FC90FC90FC90FC90FC90FBF
:10216000C90FC90FC90FC90FC90FC90FC90FC90FAF
:10217000C90FC90FE410F910FF1014112F113A11F3
:1021800055116011C310BFE7AB2EB3E0BB2E20E0AA
:1021900030E0A901D501ED915D0180ED8E0F8A300F
:1021A00008F099C0AAE0B0E00E94ED152E2FEE0FC6
:1021B000330B440B550B260F371F481F591F205355
:1021C000310941095109E6CF0E948E0060932D0329
:1021D00070932E0380932F03909330030E94BB04CF
:1021E00060937103709372038093730390937403ED
:1021F000D0CE91E0813409F47BC090E079C00E9498
:10220000000160933D0370933E0380933F039093DE
:1022100040030E94BB046093790370937A03809318
:102220007B0390937C03B5CE833509F0B2CE8091C9
:102230003D0390913E03A0913F03B0914003B095C0
:10224000A095909581959F4FAF4FBF4F80933D03D1
:1022500090933E03A0933F03B09340039ACE0E9415
:102260000001609345037093460380934703909366
:1022700048038FCE873509F08CCE8091450390912D
:102280004603A0914703B0914803B095A09590955F
:1022900081959F4FAF4FBF4F809345039093460367
:1022A000A0934703B093480374CE0E948E006093BE
:1022B000550370935603809357039093580369CE48
:1022C0000E948E0060935D0370935E0380935F03B2
:1022D000909360035ECE2093350330933603409392
:1022E00037035093380355CE91E081330CF485CFFA
:1022F000909391034ECE8FE793E00E944F1499275D
:1023000090936C0380936B0344CE0E948E00609385
:10231000650370936603809367039093680339CED7
:102320000E948E0060934D0370934E0380934F0381
:10233000909350032ECE1092900310928F03109220
:102340007D0330928E0310927E031092910332CD62
:10235000EE3040F481E08E0F80939003F0E0E1587E
:10236000FC4F108380917E03811124CD80917D03E9
:10237000182710937D031ECDB2E38B1691043CF415
:1023800080914E0290914F02C2970CF439C261E0E5
:1023900087E00E94AC0280E00E944F0424EB30E012
:1023A000DC010E94A9172FEF33E040E050E00E94CB
:1023B000CE15C9016901203232400CF03DC0209198
:1023C000D403E8E8CE2ED12CC21AD10827FDD3942D
:1023D000CC0CDD1CCC0CDD1C0D2C000CEE08FF0819
:1023E0002091D50348E552E0421B510927FD539542
:1023F000440F551F440F551F052E000C660B770B1D
:102400009A01AB012C193D094E095F09DC01853B9E
:10241000910514F0A4EBB0E0B7FF02C0B0E0A0E07B
:102420000E94F81524EB30E040E050E00E94CE1509
:10243000C20ED31EE41EF51E2091D3032C3078F576
:102440003091D40388E890E0831B910937FD939580
:10245000880F991F880F991FC816D90684F03091EC
:10246000D50388E592E0831B910937FD9395880F8A
:10247000991F880F991FC816D9060CF4C601029738
:10248000880F991F4FB7F89430E0F901EE0FFF1F46
:10249000E20FF31FE250FD4F928381834FBF62E34F
:1024A00070E080E090E00E94890461E088E00E9492
:1024B000AC0261E087E00E94AC0261E08AE00E9429
:1024C000AC020E94130680E00E94BB0662E571E048
:1024D0008BEB93E00E94CF0681E00E94BB0664E68E
:1024E00071E08BEB93E00E94CF0664EF71E080E037
:1024F00090E00E9489040E94130680E00E94BB06BF
:102500006CE771E0CE0107960E94DC08BE01695FAE
:102510007F4FCE0101960E94A208B201CE01019622
:102520000E945108DC0114964D915C9115976D91B4
:102530007C918BEB93E00E949F01CE0101960E945B
:102540000D09CE0107960E940D0981E00E94BB068D
:1025500000914E0210914F0266E771E0CE0107969E
:102560000E94DC08BE01695F7F4FCE0101960E9488
:10257000A208B801CE0101960E945108FC014481D5
:102580005581608171818BEB93E00E949F01CE01A8
:1025900001960E940D09CE0107960E940D090E9426
:1025A000130668EC70E080E090E00E94890464E823
:1025B00071E08BEB93E00E94CF0664E670E080E070
:1025C00090E00E94890444EF51E060E070E087E110
:1025D00094E00E94290368EC70E080E090E00E94A3
:1025E00089044CE251E060E070E085E594E00E94EF
:1025F000290368EC70E080E090E00E94890444E6E2
:1026000050E060E070E087E994E00E94290365E013
:1026100070E080E090E00E948904809039039090FF
:102620003A03A0903B03B0903C03C0904103D0908C
:102630004203E0904303F09044038091750390912E
:102640007603A0917703B09178038F3F9F4FAF4FF0
:10265000BF4F11F00E94BB042FEF821629EC9206A7
:102660002AE9A2062BE3B20609F4C1C0C501B401F0
:102670000E94B11420E034E244E759E40E94D516E8
:102680004B015C01C701B6010E94B11420E034E2A5
:1026900044E759E40E94D5166B017C0166E971E0BC
:1026A00081E692E00E94CF0664E670E080E090E070
:1026B0000E94890463EA71E081E692E00E94CF06FD
:1026C00068EC70E080E090E00E94890468EB71E0C3
:1026D000CE0107960E94DC08BE01695F7F4FCE01E4
:1026E00001960E94A208B201CE0101960E945108F3
:1026F0000E940008CE0101960E940D09CE010796A6
:102700000E940D0900914E0210914F0262EB71E0A0
:10271000CE0107960E94DC08BE01695F7F4FCE01A3
:1027200001960E94A208B801CE0101960E945108AC
:102730000E940008CE0101960E940D09CE01079665
:102740000E940D0968EC70E080E090E00E9489042E
:1027500067EC71E081E692E00E94CF0620E030E075
:102760004AE754E4C501B4010E94AA14811103C0D0
:10277000812C912C540146E0C501B4010E9424072C
:1027800063ED71E081E692E00E94CF0620E030E048
:102790004AE754E4C701B6010E94AA14811103C09C
:1027A000C12CD12C760146E0C701B6010E94240756
:1027B00068EC70E080E090E00E94890463E471E0DE
:1027C00081E692E00E94CF0663E471E081E692E048
:1027D0000E94CF0680E090E0892B09F495CA0E9400
:1027E0000902882309F48ECA0E9400008BCA812C3A
:1027F000912C8AE7A82E84E4B82E750164014ECF8F
:1028000060E087E00E94AC0262E370E080E090E06C
:102810000E94890460E087E00E94AC0260E08AE0E8
:102820000E94AC0260E088E00E94AC020E941306A5
:1028300080E00E94BB0661EE71E08BEB93E00E94AA
:10284000CF0681E00E94BB0661EF71E08BEB93E065
:10285000BFCF20928E039DCB10928E039ACB83E242
:1028600093E00E940D098DE191E090939D03809388
:102870009C0380914C0290914D028C59934071F4CD
:10288000E091AF03F091B00390818091B103809506
:102890008923808310924D0210924C020895FC010E
:1028A00088279927E89421912032E9F3293010F004
:1028B0002E30C8F32B3241F02D3239F4689404C025
:1028C0000E947814820F911D219120532A30C0F369
:1028D0001EF4909581959F4F0895BB274A3031F49F
:1028E000992322F4BDE2909581959F4F0C94811419
:1028F0007AE0979F902D879F802D910D1124089548
:10290000BB27FB015527AA27880F991FAA1FA417C9
:1029100010F0A41B83955051B9F7A05DAA3308F0BD
:10292000A95DA193009779F7B111B1931192CB01F1
:102930000C949A14DC01FC01672F71917723E1F765
:10294000329704C07C916D9370836291AE17BF077C
:10295000C8F308950E94EC1408F481E00895E89407
:1029600009C097FB3EF490958095709561957F4FD7
:102970008F4F9F4F9923A9F0F92F96E9BB27939585
:10298000F695879577956795B795F111F8CFFAF495
:10299000BB0F11F460FF1BC06F5F7F4F8F4F9F4FC6
:1029A00016C0882311F096E911C0772321F09EE824
:1029B000872F762F05C0662371F096E8862F70E08A
:1029C00060E02AF09A95660F771F881FDAF7880F64
:1029D0009695879597F90895990F0008550FAA0BBA
:1029E000E0E8FEEF16161706E807F907C0F0121622
:1029F0001306E407F50798F0621B730B840B950B25
:102A000039F40A2661F0232B242B252B21F4089579
:102A10000A2609F4A140A6958FEF811D811D089516
:102A20000E9423150C9494150E94861538F00E947C
:102A30008D1520F0952311F00C947D150C948315C1
:102A400011240C94C8150E94A51570F3959FC1F32D
:102A5000950F50E0551F629FF001729FBB27F00D4C
:102A6000B11D639FAA27F00DB11DAA1F649F6627A1
:102A7000B00DA11D661F829F2227B00DA11D621FF0
:102A8000739FB00DA11D621F839FA00D611D221FAA
:102A9000749F3327A00D611D231F849F600D211D8E
:102AA000822F762F6A2F11249F5750409AF0F1F011
:102AB00088234AF0EE0FFF1FBB1F661F771F881F7A
:102AC00091505040A9F79E3F510580F00C947D1520
:102AD0000C94C8155F3FE4F3983ED4F38695779540
:102AE0006795B795F795E7959F5FC1F7FE2B880F20
:102AF000911D9695879597F9089597F99F6780E8B6
:102B000070E060E008959FEF80EC089500240A943F
:102B10001616170618060906089500240A941216B8
:102B20001306140605060895092E0394000C11F4EB
:102B3000882352F0BB0F40F4BF2B11F460FF04C098
:102B40006F5F7F4F8F4F9F4F089557FD9058440FF1
:102B5000551F59F05F3F71F04795880F97FB991FFC
:102B600061F09F3F79F087950895121613061406B9
:102B7000551FF2CF4695F1DF08C016161706180646
:102B8000991FF1CF86957105610508940895E89421
:102B9000BB2766277727CB0197F90895052E97FB6A
:102BA0001EF400940E94E51557FD07D00E943716C9
:102BB00007FC03D04EF40C94E515509540953095E4
:102BC00021953F4F4F4F5F4F089590958095709599
:102BD00061957F4F8F4F9F4F08950E945916A59F73
:102BE000900DB49F900DA49F800D911D1124089508
:102BF000B7FF0C94ED150E94ED15821B930B089501
:102C00002F923F924F925F926F927F928F929F92FC
:102C1000AF92BF92CF92DF92EF92FF920F931F93EA
:102C2000CF93DF93CDB7DEB7CA1BDB0B0FB6F8949B
:102C3000DEBF0FBECDBF09942A88398848885F84DB
:102C40006E847D848C849B84AA84B984C884DF804C
:102C5000EE80FD800C811B81AA81B981CE0FD11D30
:102C60000FB6F894DEBF0FBECDBFED010895A1E20F
:102C70001A2EAA1BBB1BFD010DC0AA1FBB1FEE1FF6
:102C8000FF1FA217B307E407F50720F0A21BB30B41
:102C9000E40BF50B661F771F881F991F1A9469F7BD
:102CA00060957095809590959B01AC01BD01CF0119
:102CB0000895A29FB001B39FC001A39F700D811D15
:102CC0001124911DB29F700D811D1124911D089535
:102CD0005058BB27AA270E9480160C9494150E9476
:102CE000861538F00E948D1520F039F49F3F19F4B5
:102CF00026F40C9483150EF4E095E7FB0C947D15F7
:102D0000E92F0E94A51558F3BA17620773078407C5
:102D1000950720F079F4A6F50C94C7150EF4E0950C
:102D20000B2EBA2FA02D0B01B90190010C01CA0185
:102D3000A0011124FF27591B99F0593F50F4503E30
:102D400068F11A16F040A22F232F342F4427585F22
:102D5000F3CF469537952795A795F0405395C9F73A
:102D60007EF41F16BA0B620B730B840BBAF09150F2
:102D7000A1F0FF0FBB1F661F771F881FC2F70EC091
:102D8000BA0F621F731F841F48F487957795679564
:102D9000B795F7959E3F08F0B0CF9395880F08F050
:102DA0009927EE0F9795879508950E94E9160C9440
:102DB00094150E948D1558F00E94861540F029F454
:102DC0005F3F29F00C947D1551110C94C8150C949B
:102DD00083150E94A51568F39923B1F3552391F348
:102DE000951B550BBB27AA2762177307840738F07A
:102DF0009F5F5F4F220F331F441FAA1FA9F335D0D7
:102E00000E2E3AF0E0E832D091505040E695001C8A
:102E1000CAF72BD0FE2F29D0660F771F881FBB1F44
:102E2000261737074807AB07B0E809F0BB0B802D22
:102E3000BF01FF2793585F4F3AF09E3F510578F04E
:102E40000C947D150C94C8155F3FE4F3983ED4F3C1
:102E5000869577956795B795F7959F5FC9F7880F22
:102E6000911D9695879597F90895E1E0660F771F74
:102E7000881FBB1F621773078407BA0720F0621B05
:102E8000730B840BBA0BEE1F88F7E09508950E9430
:102E90004E176894B1110C94C81508950E94AD1591
:102EA00088F09F5798F0B92F9927B751B0F0E1F00B
:102EB000660F771F881F991F1AF0BA95C9F714C0BB
:102EC000B13091F00E94C715B1E008950C94C71578
:102ED000672F782F8827B85F39F0B93FCCF38695F4
:102EE00077956795B395D9F73EF490958095709551
:102EF00061957F4F8F4F9F4F08950E94EC1408F407
:102F00008FEF08950E94EC14880B990B0895DB0154
:102F10008F939F930E94ED15BF91AF91A29F800D5B
:102F2000911DA39F900DB29F900D11240895991BA0
:102F300079E004C0991F961708F0961B881F7A95B0
:102F4000C9F780950895EE0FFF1F0590F491E02DCD
:102F500009940E945916B7FF0895821B930B089598
:102F60000F931F93CF93DF938230910510F482E08B
:102F700090E0E091D803F091D90330E020E0B0E098
:102F8000A0E0309799F42115310509F44AC0281BB7
:102F9000390B24303105D8F58A819B816115710583
:102FA00089F1FB0193838283FE0111C0408151812D
:102FB0000281138148175907E0F04817590799F41F
:102FC000109761F012960C93129713961C933296F9
:102FD000CF01DF91CF911F910F9108950093D803F6
:102FE0001093D903F4CF2115310551F0421753073F
:102FF00038F0A901DB019A01BD01DF01F801C1CF61
:10300000EF01F9CF9093D9038093D803CDCFFE0180
:10301000E20FF31F81939193225031093983288362
:10302000D7CF2091D6033091D703232B41F42091A1
:103030000301309104013093D7032093D6032091EC
:103040000101309102012115310541F42DB73EB740
:103050004091050150910601241B350BE091D603E8
:10306000F091D703E217F307A0F42E1B3F0B2817AC
:10307000390778F0AC014E5F5F4F2417350748F0F1
:103080004E0F5F1F5093D7034093D60381939193C4
:103090009FCFF0E0E0E09CCFCF93DF930097E9F083
:1030A000FC01329713821282A091D803B091D90308
:1030B000ED0130E020E01097A1F420813181820FF2
:1030C000931F2091D6033091D7032817390709F0B1
:1030D00061C0F093D703E093D603DF91CF910895B9
:1030E000EA01CE17DF07E8F54A815B819E014115B1
:1030F0005105B1F7E901FB83EA8349915991C40F66
:10310000D51FEC17FD0761F4808191810296840F31
:10311000951FE90199838883828193819B838A83A8
:10312000F0E0E0E012968D919C9113970097B9F52D
:103130002D913C911197CD010296820F931F209102
:10314000D6033091D7032817390739F6309751F550
:103150001092D9031092D803B093D703A093D6034B
:10316000BCCFD383C28340815181840F951FC81780
:10317000D90761F44E5F5F4F88819981480F591FCD
:10318000518340838A819B819383828321153105FA
:1031900009F0B0CFF093D903E093D8039ECFFD019F
:1031A000DC01C0CF13821282D7CFB0E0A0E0EBEDFC
:1031B000F8E10C9402168C01009751F4CB010E94A7
:1031C000B0178C01C801CDB7DEB7E0E10C941E1634
:1031D000FC01E60FF71F9C0122503109E217F307AB
:1031E00008F49DC0D901CD91DC911197C617D7077E
:1031F00098F0C530D10530F3CE01049786179707B4
:1032000008F3C61BD70B2297C193D1936D937C9380
:10321000CF010E944C18D6CF5B01AC1ABD0A4C01FD
:103220008C0E9D1EA091D803B091D903512C412C36
:10323000F12CE12C109731F58091D6039091D703B2
:103240008815990509F05CC04616570608F058C065
:103250008091010190910201009741F48DB79EB7D2
:103260004091050150910601841B950BE817F90761
:1032700008F055C0F093D703E093D603F9017183AA
:103280006083A0CF8D919C91119712966C901297AC
:1032900013967C901397A815B90559F56C0142E077
:1032A000C40ED11CCA14DB0420F1AC014A195B091D
:1032B000DA011296159780F06282738251834083FF
:1032C000D9016D937C93E114F10471F0D701139649
:1032D000FC93EE93129776CF22968C0F9D1FF901E7
:1032E00091838083F301EFCFF093D903E093D80368
:1032F00069CF4816590608F42C017D01D3019ACFF5
:10330000CB010E94B0177C01009749F0AE01B801D3
:103310000E949219C8010E944C18870153CF10E0F7
:1033200000E050CFFB01DC0102C001900D92415042
:103330005040D8F70895FB01DC0101900D92002068
:10334000E1F7089510E0C3E6D0E004C0FE010E945A
:0E335000A3172196C436D107C9F7F894FFCF12
:10335E00FF0000DA038000000000003F029F01CC56
:10336E00018C02FD01DB01EF0100000000E0049F73
:10337E00017405DF043C055205C70400000000C9B6
:10338E00069F01740573056E616E00696E66006FAF
:10339E007666000D0A004750524D4300475047478E
:1033AE004100202054484552452049532046495259
:1033BE004520200020204E4F5420534146452048A2
:1033CE00455245202000536D6F6B652054656D701E
:1033DE00203D20002E2E2E53656E64696E6720539D
:1033EE004D532E2E2E004649524520414C455254E7
:1033FE00210D0046495245204F4343555245442125
:10340E000D00536D6F6B652054656D706572617440
:10341E00757265203D20004C617469747564652079
:10342E003D2000204C6F6E676974756465203D20E9
:10343E0000202020204E4F2046495245202020209B
:10344E0000202020414C4C20534146452020200096
:00000001FF
